{
    "_format": "hh-sol-artifact-1",
    "contractName": "Cheyny",
    "sourceName": "contracts/Cheyny.sol",
    "abi": [
        {
            "inputs": [],
            "stateMutability": "nonpayable",
            "type": "constructor"
        },
        {
            "anonymous": false,
            "inputs": [
                {
                    "indexed": true,
                    "internalType": "address",
                    "name": "owner",
                    "type": "address"
                },
                {
                    "indexed": true,
                    "internalType": "address",
                    "name": "approved",
                    "type": "address"
                },
                {
                    "indexed": true,
                    "internalType": "uint256",
                    "name": "tokenId",
                    "type": "uint256"
                }
            ],
            "name": "Approval",
            "type": "event"
        },
        {
            "anonymous": false,
            "inputs": [
                {
                    "indexed": true,
                    "internalType": "address",
                    "name": "owner",
                    "type": "address"
                },
                {
                    "indexed": true,
                    "internalType": "address",
                    "name": "operator",
                    "type": "address"
                },
                {
                    "indexed": false,
                    "internalType": "bool",
                    "name": "approved",
                    "type": "bool"
                }
            ],
            "name": "ApprovalForAll",
            "type": "event"
        },
        {
            "anonymous": false,
            "inputs": [
                {
                    "indexed": false,
                    "internalType": "address",
                    "name": "newIssuer",
                    "type": "address"
                }
            ],
            "name": "ClaimIssuer",
            "type": "event"
        },
        {
            "anonymous": false,
            "inputs": [
                {
                    "indexed": false,
                    "internalType": "address",
                    "name": "issuer",
                    "type": "address"
                }
            ],
            "name": "DisclaimIssuer",
            "type": "event"
        },
        {
            "anonymous": false,
            "inputs": [
                {
                    "indexed": false,
                    "internalType": "uint256",
                    "name": "tokenId",
                    "type": "uint256"
                },
                {
                    "indexed": false,
                    "internalType": "address",
                    "name": "issuer",
                    "type": "address"
                },
                {
                    "indexed": false,
                    "internalType": "string",
                    "name": "tokenURI",
                    "type": "string"
                }
            ],
            "name": "MintItem",
            "type": "event"
        },
        {
            "anonymous": false,
            "inputs": [
                {
                    "indexed": true,
                    "internalType": "address",
                    "name": "previousOwner",
                    "type": "address"
                },
                {
                    "indexed": true,
                    "internalType": "address",
                    "name": "newOwner",
                    "type": "address"
                }
            ],
            "name": "OwnershipTransferred",
            "type": "event"
        },
        {
            "anonymous": false,
            "inputs": [
                {
                    "indexed": true,
                    "internalType": "address",
                    "name": "from",
                    "type": "address"
                },
                {
                    "indexed": true,
                    "internalType": "address",
                    "name": "to",
                    "type": "address"
                },
                {
                    "indexed": true,
                    "internalType": "uint256",
                    "name": "tokenId",
                    "type": "uint256"
                }
            ],
            "name": "Transfer",
            "type": "event"
        },
        {
            "inputs": [
                {
                    "internalType": "address",
                    "name": "to",
                    "type": "address"
                },
                {
                    "internalType": "uint256",
                    "name": "tokenId",
                    "type": "uint256"
                }
            ],
            "name": "approve",
            "outputs": [],
            "stateMutability": "nonpayable",
            "type": "function"
        },
        {
            "inputs": [
                {
                    "internalType": "address",
                    "name": "owner",
                    "type": "address"
                }
            ],
            "name": "balanceOf",
            "outputs": [
                {
                    "internalType": "uint256",
                    "name": "",
                    "type": "uint256"
                }
            ],
            "stateMutability": "view",
            "type": "function"
        },
        {
            "inputs": [
                {
                    "internalType": "address",
                    "name": "newIssuer",
                    "type": "address"
                }
            ],
            "name": "claimIssuer",
            "outputs": [],
            "stateMutability": "nonpayable",
            "type": "function"
        },
        {
            "inputs": [
                {
                    "internalType": "address",
                    "name": "issuer",
                    "type": "address"
                }
            ],
            "name": "disclaimIssuer",
            "outputs": [],
            "stateMutability": "nonpayable",
            "type": "function"
        },
        {
            "inputs": [
                {
                    "internalType": "uint256",
                    "name": "tokenId",
                    "type": "uint256"
                }
            ],
            "name": "getApproved",
            "outputs": [
                {
                    "internalType": "address",
                    "name": "",
                    "type": "address"
                }
            ],
            "stateMutability": "view",
            "type": "function"
        },
        {
            "inputs": [
                {
                    "internalType": "address",
                    "name": "owner",
                    "type": "address"
                },
                {
                    "internalType": "address",
                    "name": "operator",
                    "type": "address"
                }
            ],
            "name": "isApprovedForAll",
            "outputs": [
                {
                    "internalType": "bool",
                    "name": "",
                    "type": "bool"
                }
            ],
            "stateMutability": "view",
            "type": "function"
        },
        {
            "inputs": [
                {
                    "internalType": "address",
                    "name": "",
                    "type": "address"
                }
            ],
            "name": "issuers",
            "outputs": [
                {
                    "internalType": "bool",
                    "name": "",
                    "type": "bool"
                }
            ],
            "stateMutability": "view",
            "type": "function"
        },
        {
            "inputs": [
                {
                    "internalType": "address",
                    "name": "issuer",
                    "type": "address"
                },
                {
                    "internalType": "string",
                    "name": "tokenURI",
                    "type": "string"
                }
            ],
            "name": "mintItem",
            "outputs": [
                {
                    "internalType": "uint256",
                    "name": "",
                    "type": "uint256"
                }
            ],
            "stateMutability": "nonpayable",
            "type": "function"
        },
        {
            "inputs": [],
            "name": "name",
            "outputs": [
                {
                    "internalType": "string",
                    "name": "",
                    "type": "string"
                }
            ],
            "stateMutability": "view",
            "type": "function"
        },
        {
            "inputs": [],
            "name": "owner",
            "outputs": [
                {
                    "internalType": "address",
                    "name": "",
                    "type": "address"
                }
            ],
            "stateMutability": "view",
            "type": "function"
        },
        {
            "inputs": [
                {
                    "internalType": "uint256",
                    "name": "tokenId",
                    "type": "uint256"
                }
            ],
            "name": "ownerOf",
            "outputs": [
                {
                    "internalType": "address",
                    "name": "",
                    "type": "address"
                }
            ],
            "stateMutability": "view",
            "type": "function"
        },
        {
            "inputs": [],
            "name": "renounceOwnership",
            "outputs": [],
            "stateMutability": "nonpayable",
            "type": "function"
        },
        {
            "inputs": [
                {
                    "internalType": "address",
                    "name": "from",
                    "type": "address"
                },
                {
                    "internalType": "address",
                    "name": "to",
                    "type": "address"
                },
                {
                    "internalType": "uint256",
                    "name": "tokenId",
                    "type": "uint256"
                }
            ],
            "name": "safeTransferFrom",
            "outputs": [],
            "stateMutability": "nonpayable",
            "type": "function"
        },
        {
            "inputs": [
                {
                    "internalType": "address",
                    "name": "from",
                    "type": "address"
                },
                {
                    "internalType": "address",
                    "name": "to",
                    "type": "address"
                },
                {
                    "internalType": "uint256",
                    "name": "tokenId",
                    "type": "uint256"
                },
                {
                    "internalType": "bytes",
                    "name": "_data",
                    "type": "bytes"
                }
            ],
            "name": "safeTransferFrom",
            "outputs": [],
            "stateMutability": "nonpayable",
            "type": "function"
        },
        {
            "inputs": [
                {
                    "internalType": "address",
                    "name": "operator",
                    "type": "address"
                },
                {
                    "internalType": "bool",
                    "name": "approved",
                    "type": "bool"
                }
            ],
            "name": "setApprovalForAll",
            "outputs": [],
            "stateMutability": "nonpayable",
            "type": "function"
        },
        {
            "inputs": [
                {
                    "internalType": "bytes4",
                    "name": "interfaceId",
                    "type": "bytes4"
                }
            ],
            "name": "supportsInterface",
            "outputs": [
                {
                    "internalType": "bool",
                    "name": "",
                    "type": "bool"
                }
            ],
            "stateMutability": "view",
            "type": "function"
        },
        {
            "inputs": [],
            "name": "symbol",
            "outputs": [
                {
                    "internalType": "string",
                    "name": "",
                    "type": "string"
                }
            ],
            "stateMutability": "view",
            "type": "function"
        },
        {
            "inputs": [
                {
                    "internalType": "uint256",
                    "name": "tokenId",
                    "type": "uint256"
                }
            ],
            "name": "tokenURI",
            "outputs": [
                {
                    "internalType": "string",
                    "name": "",
                    "type": "string"
                }
            ],
            "stateMutability": "view",
            "type": "function"
        },
        {
            "inputs": [
                {
                    "internalType": "address",
                    "name": "from",
                    "type": "address"
                },
                {
                    "internalType": "address",
                    "name": "to",
                    "type": "address"
                },
                {
                    "internalType": "uint256",
                    "name": "tokenId",
                    "type": "uint256"
                }
            ],
            "name": "transferFrom",
            "outputs": [],
            "stateMutability": "nonpayable",
            "type": "function"
        },
        {
            "inputs": [
                {
                    "internalType": "address",
                    "name": "newOwner",
                    "type": "address"
                }
            ],
            "name": "transferOwnership",
            "outputs": [],
            "stateMutability": "nonpayable",
            "type": "function"
        }
    ],
    "bytecode": "0x60806040523480156200001157600080fd5b506040518060400160405280600681526020017f436865796e7900000000000000000000000000000000000000000000000000008152506040518060400160405280600481526020017f4348455900000000000000000000000000000000000000000000000000000000815250816000908051906020019062000096929190620001fe565b508060019080519060200190620000af929190620001fe565b505050620000d2620000c66200013060201b60201c565b6200013860201b60201c565b6001600960003373ffffffffffffffffffffffffffffffffffffffff1673ffffffffffffffffffffffffffffffffffffffff16815260200190815260200160002060006101000a81548160ff02191690831515021790555062000313565b600033905090565b6000600760009054906101000a900473ffffffffffffffffffffffffffffffffffffffff16905081600760006101000a81548173ffffffffffffffffffffffffffffffffffffffff021916908373ffffffffffffffffffffffffffffffffffffffff1602179055508173ffffffffffffffffffffffffffffffffffffffff168173ffffffffffffffffffffffffffffffffffffffff167f8be0079c531659141344cd1fd0a4f28419497f9722a3daafe3b4186f6b6457e060405160405180910390a35050565b8280546200020c90620002ae565b90600052602060002090601f0160209004810192826200023057600085556200027c565b82601f106200024b57805160ff19168380011785556200027c565b828001600101855582156200027c579182015b828111156200027b5782518255916020019190600101906200025e565b5b5090506200028b91906200028f565b5090565b5b80821115620002aa57600081600090555060010162000290565b5090565b60006002820490506001821680620002c757607f821691505b60208210811415620002de57620002dd620002e4565b5b50919050565b7f4e487b7100000000000000000000000000000000000000000000000000000000600052602260045260246000fd5b61337e80620003236000396000f3fe608060405234801561001057600080fd5b506004361061012c5760003560e01c8063715018a6116100ad578063c87b56dd11610071578063c87b56dd14610341578063d3a4e9ba14610371578063e985e9c51461038d578063f2fde38b146103bd578063fdcc438b146103d95761012c565b8063715018a6146102c35780638da5cb5b146102cd57806395d89b41146102eb578063a22cb46514610309578063b88d4fde146103255761012c565b806323b872dd116100f457806323b872dd146101fb57806338a7543e1461021757806342842e0e146102475780636352211e1461026357806370a08231146102935761012c565b806301ffc9a71461013157806306fdde0314610161578063081812fc1461017f578063095ea7b3146101af578063110bcd45146101cb575b600080fd5b61014b60048036038101906101469190612283565b6103f5565b60405161015891906126f2565b60405180910390f35b6101696104d7565b604051610176919061270d565b60405180910390f35b610199600480360381019061019491906122d5565b610569565b6040516101a6919061268b565b60405180910390f35b6101c960048036038101906101c49190612247565b6105ee565b005b6101e560048036038101906101e091906121f3565b610706565b6040516101f2919061298f565b60405180910390f35b610215600480360381019061021091906120ed565b61080c565b005b610231600480360381019061022c9190612088565b61086c565b60405161023e91906126f2565b60405180910390f35b610261600480360381019061025c91906120ed565b61088c565b005b61027d600480360381019061027891906122d5565b6108ac565b60405161028a919061268b565b60405180910390f35b6102ad60048036038101906102a89190612088565b61095e565b6040516102ba919061298f565b60405180910390f35b6102cb610a16565b005b6102d5610a9e565b6040516102e2919061268b565b60405180910390f35b6102f3610ac8565b604051610300919061270d565b60405180910390f35b610323600480360381019061031e91906121b7565b610b5a565b005b61033f600480360381019061033a919061213c565b610b70565b005b61035b600480360381019061035691906122d5565b610bd2565b604051610368919061270d565b60405180910390f35b61038b60048036038101906103869190612088565b610d24565b005b6103a760048036038101906103a291906120b1565b610e32565b6040516103b491906126f2565b60405180910390f35b6103d760048036038101906103d29190612088565b610ec6565b005b6103f360048036038101906103ee9190612088565b610fbe565b005b60007f80ac58cd000000000000000000000000000000000000000000000000000000007bffffffffffffffffffffffffffffffffffffffffffffffffffffffff1916827bffffffffffffffffffffffffffffffffffffffffffffffffffffffff191614806104c057507f5b5e139f000000000000000000000000000000000000000000000000000000007bffffffffffffffffffffffffffffffffffffffffffffffffffffffff1916827bffffffffffffffffffffffffffffffffffffffffffffffffffffffff1916145b806104d057506104cf826110cc565b5b9050919050565b6060600080546104e690612c23565b80601f016020809104026020016040519081016040528092919081815260200182805461051290612c23565b801561055f5780601f106105345761010080835404028352916020019161055f565b820191906000526020600020905b81548152906001019060200180831161054257829003601f168201915b5050505050905090565b600061057482611136565b6105b3576040517f08c379a00000000000000000000000000000000000000000000000000000000081526004016105aa906128cf565b60405180910390fd5b6004600083815260200190815260200160002060009054906101000a900473ffffffffffffffffffffffffffffffffffffffff169050919050565b60006105f9826108ac565b90508073ffffffffffffffffffffffffffffffffffffffff168373ffffffffffffffffffffffffffffffffffffffff16141561066a576040517f08c379a00000000000000000000000000000000000000000000000000000000081526004016106619061294f565b60405180910390fd5b8073ffffffffffffffffffffffffffffffffffffffff166106896111a2565b73ffffffffffffffffffffffffffffffffffffffff1614806106b857506106b7816106b26111a2565b610e32565b5b6106f7576040517f08c379a00000000000000000000000000000000000000000000000000000000081526004016106ee906127ef565b60405180910390fd5b61070183836111aa565b505050565b600060011515600960003373ffffffffffffffffffffffffffffffffffffffff1673ffffffffffffffffffffffffffffffffffffffff16815260200190815260200160002060009054906101000a900460ff1615151461079b576040517f08c379a0000000000000000000000000000000000000000000000000000000008152600401610792906128af565b60405180910390fd5b6107a56008611263565b60006107b16008611279565b90506107bd8482611287565b6107c78184611455565b7fd8ba4f3bc1be007e8719b5fe692121e9c111e4d089bf41e453d5849dc7c8a5428185856040516107fa939291906129aa565b60405180910390a18091505092915050565b61081d6108176111a2565b826114c9565b61085c576040517f08c379a00000000000000000000000000000000000000000000000000000000081526004016108539061296f565b60405180910390fd5b6108678383836115a7565b505050565b60096020528060005260406000206000915054906101000a900460ff1681565b6108a783838360405180602001604052806000815250610b70565b505050565b6000806002600084815260200190815260200160002060009054906101000a900473ffffffffffffffffffffffffffffffffffffffff169050600073ffffffffffffffffffffffffffffffffffffffff168173ffffffffffffffffffffffffffffffffffffffff161415610955576040517f08c379a000000000000000000000000000000000000000000000000000000000815260040161094c9061282f565b60405180910390fd5b80915050919050565b60008073ffffffffffffffffffffffffffffffffffffffff168273ffffffffffffffffffffffffffffffffffffffff1614156109cf576040517f08c379a00000000000000000000000000000000000000000000000000000000081526004016109c69061280f565b60405180910390fd5b600360008373ffffffffffffffffffffffffffffffffffffffff1673ffffffffffffffffffffffffffffffffffffffff168152602001908152602001600020549050919050565b610a1e6111a2565b73ffffffffffffffffffffffffffffffffffffffff16610a3c610a9e565b73ffffffffffffffffffffffffffffffffffffffff1614610a92576040517f08c379a0000000000000000000000000000000000000000000000000000000008152600401610a89906128ef565b60405180910390fd5b610a9c6000611803565b565b6000600760009054906101000a900473ffffffffffffffffffffffffffffffffffffffff16905090565b606060018054610ad790612c23565b80601f0160208091040260200160405190810160405280929190818152602001828054610b0390612c23565b8015610b505780601f10610b2557610100808354040283529160200191610b50565b820191906000526020600020905b815481529060010190602001808311610b3357829003601f168201915b5050505050905090565b610b6c610b656111a2565b83836118c9565b5050565b610b81610b7b6111a2565b836114c9565b610bc0576040517f08c379a0000000000000000000000000000000000000000000000000000000008152600401610bb79061296f565b60405180910390fd5b610bcc84848484611a36565b50505050565b6060610bdd82611136565b610c1c576040517f08c379a0000000000000000000000000000000000000000000000000000000008152600401610c139061288f565b60405180910390fd5b6000600660008481526020019081526020016000208054610c3c90612c23565b80601f0160208091040260200160405190810160405280929190818152602001828054610c6890612c23565b8015610cb55780601f10610c8a57610100808354040283529160200191610cb5565b820191906000526020600020905b815481529060010190602001808311610c9857829003601f168201915b505050505090506000610cc6611a92565b9050600081511415610cdc578192505050610d1f565b600082511115610d11578082604051602001610cf9929190612667565b60405160208183030381529060405292505050610d1f565b610d1a84611aa9565b925050505b919050565b610d2c6111a2565b73ffffffffffffffffffffffffffffffffffffffff16610d4a610a9e565b73ffffffffffffffffffffffffffffffffffffffff1614610da0576040517f08c379a0000000000000000000000000000000000000000000000000000000008152600401610d97906128ef565b60405180910390fd5b6001600960008373ffffffffffffffffffffffffffffffffffffffff1673ffffffffffffffffffffffffffffffffffffffff16815260200190815260200160002060006101000a81548160ff0219169083151502179055507fd36b4b68e6acfc5c148b34b213d13b1170a40f98ea5782c73f3e0a8bb808c97c81604051610e27919061268b565b60405180910390a150565b6000600560008473ffffffffffffffffffffffffffffffffffffffff1673ffffffffffffffffffffffffffffffffffffffff16815260200190815260200160002060008373ffffffffffffffffffffffffffffffffffffffff1673ffffffffffffffffffffffffffffffffffffffff16815260200190815260200160002060009054906101000a900460ff16905092915050565b610ece6111a2565b73ffffffffffffffffffffffffffffffffffffffff16610eec610a9e565b73ffffffffffffffffffffffffffffffffffffffff1614610f42576040517f08c379a0000000000000000000000000000000000000000000000000000000008152600401610f39906128ef565b60405180910390fd5b600073ffffffffffffffffffffffffffffffffffffffff168173ffffffffffffffffffffffffffffffffffffffff161415610fb2576040517f08c379a0000000000000000000000000000000000000000000000000000000008152600401610fa99061274f565b60405180910390fd5b610fbb81611803565b50565b610fc66111a2565b73ffffffffffffffffffffffffffffffffffffffff16610fe4610a9e565b73ffffffffffffffffffffffffffffffffffffffff161461103a576040517f08c379a0000000000000000000000000000000000000000000000000000000008152600401611031906128ef565b60405180910390fd5b6000600960008373ffffffffffffffffffffffffffffffffffffffff1673ffffffffffffffffffffffffffffffffffffffff16815260200190815260200160002060006101000a81548160ff0219169083151502179055507f7c8ae39b2b32630e9e0c080fc8fd602d466895a6aee1b7e2d75bb647ec23e454816040516110c1919061268b565b60405180910390a150565b60007f01ffc9a7000000000000000000000000000000000000000000000000000000007bffffffffffffffffffffffffffffffffffffffffffffffffffffffff1916827bffffffffffffffffffffffffffffffffffffffffffffffffffffffff1916149050919050565b60008073ffffffffffffffffffffffffffffffffffffffff166002600084815260200190815260200160002060009054906101000a900473ffffffffffffffffffffffffffffffffffffffff1673ffffffffffffffffffffffffffffffffffffffff1614159050919050565b600033905090565b816004600083815260200190815260200160002060006101000a81548173ffffffffffffffffffffffffffffffffffffffff021916908373ffffffffffffffffffffffffffffffffffffffff160217905550808273ffffffffffffffffffffffffffffffffffffffff1661121d836108ac565b73ffffffffffffffffffffffffffffffffffffffff167f8c5be1e5ebec7d5bd14f71427d1e84f3dd0314c0f7b2291e5b200ac8c7c3b92560405160405180910390a45050565b6001816000016000828254019250508190555050565b600081600001549050919050565b600073ffffffffffffffffffffffffffffffffffffffff168273ffffffffffffffffffffffffffffffffffffffff1614156112f7576040517f08c379a00000000000000000000000000000000000000000000000000000000081526004016112ee9061286f565b60405180910390fd5b61130081611136565b15611340576040517f08c379a00000000000000000000000000000000000000000000000000000000081526004016113379061276f565b60405180910390fd5b61134c60008383611b50565b6001600360008473ffffffffffffffffffffffffffffffffffffffff1673ffffffffffffffffffffffffffffffffffffffff168152602001908152602001600020600082825461139c9190612ab2565b92505081905550816002600083815260200190815260200160002060006101000a81548173ffffffffffffffffffffffffffffffffffffffff021916908373ffffffffffffffffffffffffffffffffffffffff160217905550808273ffffffffffffffffffffffffffffffffffffffff16600073ffffffffffffffffffffffffffffffffffffffff167fddf252ad1be2c89b69c2b068fc378daa952ba7f163c4a11628f55a4df523b3ef60405160405180910390a45050565b61145e82611136565b61149d576040517f08c379a00000000000000000000000000000000000000000000000000000000081526004016114949061284f565b60405180910390fd5b806006600084815260200190815260200160002090805190602001906114c4929190611eac565b505050565b60006114d482611136565b611513576040517f08c379a000000000000000000000000000000000000000000000000000000000815260040161150a906127cf565b60405180910390fd5b600061151e836108ac565b90508073ffffffffffffffffffffffffffffffffffffffff168473ffffffffffffffffffffffffffffffffffffffff16148061158d57508373ffffffffffffffffffffffffffffffffffffffff1661157584610569565b73ffffffffffffffffffffffffffffffffffffffff16145b8061159e575061159d8185610e32565b5b91505092915050565b8273ffffffffffffffffffffffffffffffffffffffff166115c7826108ac565b73ffffffffffffffffffffffffffffffffffffffff161461161d576040517f08c379a00000000000000000000000000000000000000000000000000000000081526004016116149061290f565b60405180910390fd5b600073ffffffffffffffffffffffffffffffffffffffff168273ffffffffffffffffffffffffffffffffffffffff16141561168d576040517f08c379a00000000000000000000000000000000000000000000000000000000081526004016116849061278f565b60405180910390fd5b611698838383611b50565b6116a36000826111aa565b6001600360008573ffffffffffffffffffffffffffffffffffffffff1673ffffffffffffffffffffffffffffffffffffffff16815260200190815260200160002060008282546116f39190612b39565b925050819055506001600360008473ffffffffffffffffffffffffffffffffffffffff1673ffffffffffffffffffffffffffffffffffffffff168152602001908152602001600020600082825461174a9190612ab2565b92505081905550816002600083815260200190815260200160002060006101000a81548173ffffffffffffffffffffffffffffffffffffffff021916908373ffffffffffffffffffffffffffffffffffffffff160217905550808273ffffffffffffffffffffffffffffffffffffffff168473ffffffffffffffffffffffffffffffffffffffff167fddf252ad1be2c89b69c2b068fc378daa952ba7f163c4a11628f55a4df523b3ef60405160405180910390a4505050565b6000600760009054906101000a900473ffffffffffffffffffffffffffffffffffffffff16905081600760006101000a81548173ffffffffffffffffffffffffffffffffffffffff021916908373ffffffffffffffffffffffffffffffffffffffff1602179055508173ffffffffffffffffffffffffffffffffffffffff168173ffffffffffffffffffffffffffffffffffffffff167f8be0079c531659141344cd1fd0a4f28419497f9722a3daafe3b4186f6b6457e060405160405180910390a35050565b8173ffffffffffffffffffffffffffffffffffffffff168373ffffffffffffffffffffffffffffffffffffffff161415611938576040517f08c379a000000000000000000000000000000000000000000000000000000000815260040161192f906127af565b60405180910390fd5b80600560008573ffffffffffffffffffffffffffffffffffffffff1673ffffffffffffffffffffffffffffffffffffffff16815260200190815260200160002060008473ffffffffffffffffffffffffffffffffffffffff1673ffffffffffffffffffffffffffffffffffffffff16815260200190815260200160002060006101000a81548160ff0219169083151502179055508173ffffffffffffffffffffffffffffffffffffffff168373ffffffffffffffffffffffffffffffffffffffff167f17307eab39ab6107e8899845ad3d59bd9653f200f220920489ca2b5937696c3183604051611a2991906126f2565b60405180910390a3505050565b611a418484846115a7565b611a4d84848484611b55565b611a8c576040517f08c379a0000000000000000000000000000000000000000000000000000000008152600401611a839061272f565b60405180910390fd5b50505050565b606060405180602001604052806000815250905090565b6060611ab482611136565b611af3576040517f08c379a0000000000000000000000000000000000000000000000000000000008152600401611aea9061292f565b60405180910390fd5b6000611afd611a92565b90506000815111611b1d5760405180602001604052806000815250611b48565b80611b2784611cec565b604051602001611b38929190612667565b6040516020818303038152906040525b915050919050565b505050565b6000611b768473ffffffffffffffffffffffffffffffffffffffff16611e99565b15611cdf578373ffffffffffffffffffffffffffffffffffffffff1663150b7a02611b9f6111a2565b8786866040518563ffffffff1660e01b8152600401611bc194939291906126a6565b602060405180830381600087803b158015611bdb57600080fd5b505af1925050508015611c0c57506040513d601f19601f82011682018060405250810190611c0991906122ac565b60015b611c8f573d8060008114611c3c576040519150601f19603f3d011682016040523d82523d6000602084013e611c41565b606091505b50600081511415611c87576040517f08c379a0000000000000000000000000000000000000000000000000000000008152600401611c7e9061272f565b60405180910390fd5b805181602001fd5b63150b7a0260e01b7bffffffffffffffffffffffffffffffffffffffffffffffffffffffff1916817bffffffffffffffffffffffffffffffffffffffffffffffffffffffff191614915050611ce4565b600190505b949350505050565b60606000821415611d34576040518060400160405280600181526020017f30000000000000000000000000000000000000000000000000000000000000008152509050611e94565b600082905060005b60008214611d66578080611d4f90612c86565b915050600a82611d5f9190612b08565b9150611d3c565b60008167ffffffffffffffff811115611da8577f4e487b7100000000000000000000000000000000000000000000000000000000600052604160045260246000fd5b6040519080825280601f01601f191660200182016040528015611dda5781602001600182028036833780820191505090505b5090505b60008514611e8d57600182611df39190612b39565b9150600a85611e029190612ccf565b6030611e0e9190612ab2565b60f81b818381518110611e4a577f4e487b7100000000000000000000000000000000000000000000000000000000600052603260045260246000fd5b60200101907effffffffffffffffffffffffffffffffffffffffffffffffffffffffffffff1916908160001a905350600a85611e869190612b08565b9450611dde565b8093505050505b919050565b600080823b905060008111915050919050565b828054611eb890612c23565b90600052602060002090601f016020900481019282611eda5760008555611f21565b82601f10611ef357805160ff1916838001178555611f21565b82800160010185558215611f21579182015b82811115611f20578251825591602001919060010190611f05565b5b509050611f2e9190611f32565b5090565b5b80821115611f4b576000816000905550600101611f33565b5090565b6000611f62611f5d84612a0d565b6129e8565b905082815260208101848484011115611f7a57600080fd5b611f85848285612be1565b509392505050565b6000611fa0611f9b84612a3e565b6129e8565b905082815260208101848484011115611fb857600080fd5b611fc3848285612be1565b509392505050565b600081359050611fda816132ec565b92915050565b600081359050611fef81613303565b92915050565b6000813590506120048161331a565b92915050565b6000815190506120198161331a565b92915050565b600082601f83011261203057600080fd5b8135612040848260208601611f4f565b91505092915050565b600082601f83011261205a57600080fd5b813561206a848260208601611f8d565b91505092915050565b60008135905061208281613331565b92915050565b60006020828403121561209a57600080fd5b60006120a884828501611fcb565b91505092915050565b600080604083850312156120c457600080fd5b60006120d285828601611fcb565b92505060206120e385828601611fcb565b9150509250929050565b60008060006060848603121561210257600080fd5b600061211086828701611fcb565b935050602061212186828701611fcb565b925050604061213286828701612073565b9150509250925092565b6000806000806080858703121561215257600080fd5b600061216087828801611fcb565b945050602061217187828801611fcb565b935050604061218287828801612073565b925050606085013567ffffffffffffffff81111561219f57600080fd5b6121ab8782880161201f565b91505092959194509250565b600080604083850312156121ca57600080fd5b60006121d885828601611fcb565b92505060206121e985828601611fe0565b9150509250929050565b6000806040838503121561220657600080fd5b600061221485828601611fcb565b925050602083013567ffffffffffffffff81111561223157600080fd5b61223d85828601612049565b9150509250929050565b6000806040838503121561225a57600080fd5b600061226885828601611fcb565b925050602061227985828601612073565b9150509250929050565b60006020828403121561229557600080fd5b60006122a384828501611ff5565b91505092915050565b6000602082840312156122be57600080fd5b60006122cc8482850161200a565b91505092915050565b6000602082840312156122e757600080fd5b60006122f584828501612073565b91505092915050565b61230781612b6d565b82525050565b61231681612b7f565b82525050565b600061232782612a6f565b6123318185612a85565b9350612341818560208601612bf0565b61234a81612dbc565b840191505092915050565b600061236082612a7a565b61236a8185612a96565b935061237a818560208601612bf0565b61238381612dbc565b840191505092915050565b600061239982612a7a565b6123a38185612aa7565b93506123b3818560208601612bf0565b80840191505092915050565b60006123cc603283612a96565b91506123d782612dcd565b604082019050919050565b60006123ef602683612a96565b91506123fa82612e1c565b604082019050919050565b6000612412601c83612a96565b915061241d82612e6b565b602082019050919050565b6000612435602483612a96565b915061244082612e94565b604082019050919050565b6000612458601983612a96565b915061246382612ee3565b602082019050919050565b600061247b602c83612a96565b915061248682612f0c565b604082019050919050565b600061249e603883612a96565b91506124a982612f5b565b604082019050919050565b60006124c1602a83612a96565b91506124cc82612faa565b604082019050919050565b60006124e4602983612a96565b91506124ef82612ff9565b604082019050919050565b6000612507602e83612a96565b915061251282613048565b604082019050919050565b600061252a602083612a96565b915061253582613097565b602082019050919050565b600061254d603183612a96565b9150612558826130c0565b604082019050919050565b6000612570601f83612a96565b915061257b8261310f565b602082019050919050565b6000612593602c83612a96565b915061259e82613138565b604082019050919050565b60006125b6602083612a96565b91506125c182613187565b602082019050919050565b60006125d9602983612a96565b91506125e4826131b0565b604082019050919050565b60006125fc602f83612a96565b9150612607826131ff565b604082019050919050565b600061261f602183612a96565b915061262a8261324e565b604082019050919050565b6000612642603183612a96565b915061264d8261329d565b604082019050919050565b61266181612bd7565b82525050565b6000612673828561238e565b915061267f828461238e565b91508190509392505050565b60006020820190506126a060008301846122fe565b92915050565b60006080820190506126bb60008301876122fe565b6126c860208301866122fe565b6126d56040830185612658565b81810360608301526126e7818461231c565b905095945050505050565b6000602082019050612707600083018461230d565b92915050565b600060208201905081810360008301526127278184612355565b905092915050565b60006020820190508181036000830152612748816123bf565b9050919050565b60006020820190508181036000830152612768816123e2565b9050919050565b6000602082019050818103600083015261278881612405565b9050919050565b600060208201905081810360008301526127a881612428565b9050919050565b600060208201905081810360008301526127c88161244b565b9050919050565b600060208201905081810360008301526127e88161246e565b9050919050565b6000602082019050818103600083015261280881612491565b9050919050565b60006020820190508181036000830152612828816124b4565b9050919050565b60006020820190508181036000830152612848816124d7565b9050919050565b60006020820190508181036000830152612868816124fa565b9050919050565b600060208201905081810360008301526128888161251d565b9050919050565b600060208201905081810360008301526128a881612540565b9050919050565b600060208201905081810360008301526128c881612563565b9050919050565b600060208201905081810360008301526128e881612586565b9050919050565b60006020820190508181036000830152612908816125a9565b9050919050565b60006020820190508181036000830152612928816125cc565b9050919050565b60006020820190508181036000830152612948816125ef565b9050919050565b6000602082019050818103600083015261296881612612565b9050919050565b6000602082019050818103600083015261298881612635565b9050919050565b60006020820190506129a46000830184612658565b92915050565b60006060820190506129bf6000830186612658565b6129cc60208301856122fe565b81810360408301526129de8184612355565b9050949350505050565b60006129f2612a03565b90506129fe8282612c55565b919050565b6000604051905090565b600067ffffffffffffffff821115612a2857612a27612d8d565b5b612a3182612dbc565b9050602081019050919050565b600067ffffffffffffffff821115612a5957612a58612d8d565b5b612a6282612dbc565b9050602081019050919050565b600081519050919050565b600081519050919050565b600082825260208201905092915050565b600082825260208201905092915050565b600081905092915050565b6000612abd82612bd7565b9150612ac883612bd7565b9250827fffffffffffffffffffffffffffffffffffffffffffffffffffffffffffffffff03821115612afd57612afc612d00565b5b828201905092915050565b6000612b1382612bd7565b9150612b1e83612bd7565b925082612b2e57612b2d612d2f565b5b828204905092915050565b6000612b4482612bd7565b9150612b4f83612bd7565b925082821015612b6257612b61612d00565b5b828203905092915050565b6000612b7882612bb7565b9050919050565b60008115159050919050565b60007fffffffff0000000000000000000000000000000000000000000000000000000082169050919050565b600073ffffffffffffffffffffffffffffffffffffffff82169050919050565b6000819050919050565b82818337600083830152505050565b60005b83811015612c0e578082015181840152602081019050612bf3565b83811115612c1d576000848401525b50505050565b60006002820490506001821680612c3b57607f821691505b60208210811415612c4f57612c4e612d5e565b5b50919050565b612c5e82612dbc565b810181811067ffffffffffffffff82111715612c7d57612c7c612d8d565b5b80604052505050565b6000612c9182612bd7565b91507fffffffffffffffffffffffffffffffffffffffffffffffffffffffffffffffff821415612cc457612cc3612d00565b5b600182019050919050565b6000612cda82612bd7565b9150612ce583612bd7565b925082612cf557612cf4612d2f565b5b828206905092915050565b7f4e487b7100000000000000000000000000000000000000000000000000000000600052601160045260246000fd5b7f4e487b7100000000000000000000000000000000000000000000000000000000600052601260045260246000fd5b7f4e487b7100000000000000000000000000000000000000000000000000000000600052602260045260246000fd5b7f4e487b7100000000000000000000000000000000000000000000000000000000600052604160045260246000fd5b6000601f19601f8301169050919050565b7f4552433732313a207472616e7366657220746f206e6f6e20455243373231526560008201527f63656976657220696d706c656d656e7465720000000000000000000000000000602082015250565b7f4f776e61626c653a206e6577206f776e657220697320746865207a65726f206160008201527f6464726573730000000000000000000000000000000000000000000000000000602082015250565b7f4552433732313a20746f6b656e20616c7265616479206d696e74656400000000600082015250565b7f4552433732313a207472616e7366657220746f20746865207a65726f2061646460008201527f7265737300000000000000000000000000000000000000000000000000000000602082015250565b7f4552433732313a20617070726f766520746f2063616c6c657200000000000000600082015250565b7f4552433732313a206f70657261746f7220717565727920666f72206e6f6e657860008201527f697374656e7420746f6b656e0000000000000000000000000000000000000000602082015250565b7f4552433732313a20617070726f76652063616c6c6572206973206e6f74206f7760008201527f6e6572206e6f7220617070726f76656420666f7220616c6c0000000000000000602082015250565b7f4552433732313a2062616c616e636520717565727920666f7220746865207a6560008201527f726f206164647265737300000000000000000000000000000000000000000000602082015250565b7f4552433732313a206f776e657220717565727920666f72206e6f6e657869737460008201527f656e7420746f6b656e0000000000000000000000000000000000000000000000602082015250565b7f45524337323155524953746f726167653a2055524920736574206f66206e6f6e60008201527f6578697374656e7420746f6b656e000000000000000000000000000000000000602082015250565b7f4552433732313a206d696e7420746f20746865207a65726f2061646472657373600082015250565b7f45524337323155524953746f726167653a2055524920717565727920666f722060008201527f6e6f6e6578697374656e7420746f6b656e000000000000000000000000000000602082015250565b7f6f6e6c794973737565723a20596f7520617265206e6f74206973737565722100600082015250565b7f4552433732313a20617070726f76656420717565727920666f72206e6f6e657860008201527f697374656e7420746f6b656e0000000000000000000000000000000000000000602082015250565b7f4f776e61626c653a2063616c6c6572206973206e6f7420746865206f776e6572600082015250565b7f4552433732313a207472616e73666572206f6620746f6b656e2074686174206960008201527f73206e6f74206f776e0000000000000000000000000000000000000000000000602082015250565b7f4552433732314d657461646174613a2055524920717565727920666f72206e6f60008201527f6e6578697374656e7420746f6b656e0000000000000000000000000000000000602082015250565b7f4552433732313a20617070726f76616c20746f2063757272656e74206f776e6560008201527f7200000000000000000000000000000000000000000000000000000000000000602082015250565b7f4552433732313a207472616e736665722063616c6c6572206973206e6f74206f60008201527f776e6572206e6f7220617070726f766564000000000000000000000000000000602082015250565b6132f581612b6d565b811461330057600080fd5b50565b61330c81612b7f565b811461331757600080fd5b50565b61332381612b8b565b811461332e57600080fd5b50565b61333a81612bd7565b811461334557600080fd5b5056fea264697066735822122058493d6dc99fc6ef1d52a3e596a3a5223efc5c66969ccc04d35ddecf9152f2a664736f6c63430008040033",
    "linkReferences": {},
    "deployedLinkReferences": {}
}